:100000000C943E000C945B000C945B000C945B0021
:100010000C945B000C945B000C945B000C945B00F4
:100020000C945B000C945B000C945B000C945B00E4
:100030000C945B000C945B000C945B000C945B00D4
:100040000C945B000C945B000C945B000C945B00C4
:100050000C945B000C945B000C945B000C945B00B4
:100060000C945B000C945B000C945B000C945B00A4
:100070000C945B000C945B000C945B0011241FBE7D
:10008000CFEFD0E1DEBFCDBF11E0A0E0B1E0EEE9FF
:10009000F3E002C005900D92A630B107D9F721E038
:1000A000A6E0B1E001C01D92A732B207E1F70E94BD
:1000B000DD000C94CD010C9400009091C00095FFE0
:1000C000FCCF8093C600089587E690E09093C5002A
:1000D0008093C40088E08093C1008EE08093C200CA
:1000E0000895089508950DB407FEFDCF8EB50895C7
:1000F00098B1982B98B9EFE3FCE93197F1F700C07C
:10010000000098B18095892388B98FE39CE9019715
:10011000F1F700C00000089584B1836084B987B10D
:10012000876087B90F9A179A40980E946400789464
:100130000895DF92EF92FF920F931F93CF93DF9377
:10014000CDB7DEB7EDB6FEB6FC01D1904D2D50E037
:100150002DB73EB7241B350B0FB6F8943EBF0FBE2C
:100160002DBF0DB71EB70F5F1F4FBF01C8010E9403
:10017000C401DD2001F1F801DA942D2D30E02F5F6C
:100180003F4F200F311F90E0819198272E173F0796
:10019000D9F781E091110DC00FB6F894FEBE0FBEE5
:1001A000EDBEDF91CF911F910F91FF90EF90DF9007
:1001B000089580E0F1CF81E0EFCFCF93DF93CDB70B
:1001C000DEB7A5970FB6F894DEBF0FBECDBF85E0B2
:1001D000E0E0F1E0DE01919601900D928A95E1F761
:1001E00085E0FE01B196A7E0B1E001900D928A95FD
:1001F000E1F70E948C00EDB6FEB6D09006014D2DC1
:1002000050E08DB79EB7841B950B0FB6F8949EBF38
:100210000FBE8DBF0DB71EB70F5F1F4F67E071E0B8
:10022000C8010E94C401DD2019F1F8018FEF8D0D86
:1002300090E00196800F911F20E031912327E8176D
:10024000F907D9F70FB6F894FEBE0FBEEDBE222314
:10025000A1F0429AEFE3FCE93197F1F700C000000A
:1002600042988FE39CE90197F1F700C00000C3CFEB
:100270000FB6F894FEBE0FBEEDBE10910601412FE1
:1002800050E067E071E0CE0101960E94C4015FB7C3
:10029000F894409A83E01798AFECB7E01197F1F724
:1002A00000C00000179AEFECF7E03197F1F700C0BB
:1002B0000000815081F7112309F44BC040E0FE019A
:1002C000319688E01798A7EEB3E01197F1F700C0D8
:1002D0000000179AA7EEB3E01197F1F700C00000F5
:1002E000815081F720E030E0808190E0022E02C052
:1002F000959587950A94E2F780FF2EC084E01798C1
:10030000AFECB7E01197F1F700C00000179AAFEC1F
:10031000B7E01197F1F700C00000815081F72F5F1F
:100320003F4F2830310501F784E01798AFECB7E074
:100330001197F1F700C00000179AAFECB7E01197E2
:10034000F1F700C00000815081F731964F5F141320
:10035000B8CF40985FBF4FCF88E01798A7EEB3E0C3
:100360001197F1F700C00000179AA7EEB3E01197BC
:10037000F1F700C00000815081F72F5F3F4F283018
:10038000310509F0B1CFD0CFFB01DC0102C00190F3
:0E0390000D9241505040D8F70895F894FFCFD9
:06039E00BEEFFA05AE00FF
:00000001FF
