:100000000C943E000C945B000C945B000C945B0021
:100010000C945B000C945B000C945B000C945B00F4
:100020000C945B000C945B000C945B000C945B00E4
:100030000C945B000C945B000C945B000C945B00D4
:100040000C94FC000C945B000C945B000C945B0023
:100050000C945B000C945B000C945B000C945B00B4
:100060000C945B000C945B000C945B000C945B00A4
:100070000C945B000C945B000C945B0011241FBE7D
:10008000CFEFD0E1DEBFCDBF11E0A0E0B1E0E4E111
:10009000F5E002C005900D92A630B107D9F721E036
:1000A000A6E0B1E001C01D92AF32B207E1F70E94B5
:1000B0003B010C9488020C9400009091C00095FFC5
:1000C000FCCF8093C600089587E690E09093C5002A
:1000D0008093C40088E08093C1008EE08093C200CA
:1000E0000895089508950DB407FEFDCF8EB50895C7
:1000F00098B1982B98B9EFEFFBE63197F1F700C074
:10010000000098B18095892388B98FEF9BE601970D
:10011000F1F700C00000089584B1836084B9289A83
:1001200087B1876087B90E9A169A409884B5826025
:1001300084BD85B58A6085BD86E387BDEEE6F0E0C7
:100140008081826080830E94640078940895209169
:100150000601309107014091080150910901609119
:100160000A0170910B0180910C0190910D0108958D
:10017000DF92EF92FF920F931F93CF93DF93CDB750
:10018000DEB7EDB6FEB6FC01D1904D2D50E02DB797
:100190003EB7241B350B0FB6F8943EBF0FBE2DBFE4
:1001A0000DB71EB70F5F1F4FBF01C8010E947F022E
:1001B000DD2001F1F801DA942D2D30E02F5F3F4F63
:1001C000200F311F90E0819198272E173F07D9F714
:1001D00081E091110DC00FB6F894FEBE0FBEEDBECA
:1001E000DF91CF911F910F91FF90EF90DF900895D5
:1001F00080E0F1CF81E0EFCF1F920F920FB60F9208
:1002000011242F933F934F935F936F937F938F931B
:100210009F93AF932091060130910701409108010F
:100220005091090160910A0170910B0180910C01BC
:1002300090910D01A1E00E946A0220930601309383
:100240000701409308015093090160930A017093DC
:100250000B0180930C0190930D01AF919F918F91B1
:100260007F916F915F914F913F912F910F900FBEB2
:100270000F901F901895CF93DF93CDB7DEB7A5975A
:100280000FB6F894DEBF0FBECDBF85E080930E01A0
:10029000E0E0F1E0DE019196982F01900D929A95A1
:1002A000E1F7FE01B196AFE0B1E001900D928A95C1
:1002B000E1F70E948C0020900601309007014090E9
:1002C00008015090090160900A0170900B01809024
:1002D0000C0190900D012091060130910701409191
:1002E00008015091090160910A0170910B01809100
:1002F0000C0190910D0151016201730184010E9472
:1003000076022F3936484140510561057105810556
:100310009105E1F0D8F02898BFEFEFEBF1E2B15092
:10032000E040F040E1F700C00000289A209006016C
:1003300030900701409008015090090160900A0137
:1003400070900B0180900C0190900D010DB71EB7BD
:10035000F0900E014F2D50E08DB79EB7841B950B8A
:100360000FB6F8949EBF0FBE8DBFADB7BEB7119646
:100370006D016FE071E0CD010E947F02FF2061F10D
:10038000F6018FEF8F0D90E001968C0D9D1D20E002
:1003900031912327E817F907D9F70FB6F8941EBF54
:1003A0000FBE0DBF2223E9F0429AEFEFFBE6319733
:1003B000F1F700C0000042988FEF9BE60197F1F73C
:1003C00000C000009FEFAFE5B3E09150A040B04007
:1003D000E1F700C000007FCF0FB6F8941EBF0FBE3C
:1003E0000DBF10910E01412F50E06FE071E0CE0182
:1003F00001960E947F025FB7F894409A83E01698B6
:10040000E6E6F5E03197F1F70000169AA6E6B5E0CA
:100410001197F1F70000815091F7112309F443C0BF
:1004200040E0FE01319688E01698A3EBB2E0119708
:10043000F1F7169AA3EBB2E01197F1F78150A1F70B
:1004400020E030E0808190E0022E02C095958795F3
:100450000A94E2F780FF2AC084E01698A6E6B5E089
:100460001197F1F70000169AA6E6B5E01197F1F79B
:100470000000815091F72F5F3F4F2830310511F771
:1004800084E01698A6E6B5E01197F1F70000169AF9
:10049000A6E6B5E01197F1F70000815091F731968B
:1004A0004F5F1413C0CF40985FBF8CCF88E0169881
:1004B000A3EBB2E01197F1F7169AA3EBB2E0119714
:1004C000F1F78150A1F72F5F3F4F2830310509F038
:1004D000B9CFD6CF0024A7FD00942A0F301D401DB0
:1004E000501D601D701D801D901D08952A193B0927
:1004F0004C095D096E097F09800B910B0895FB0182
:10050000DC0102C001900D9241505040D8F708958F
:04051000F894FFCF8D
:06051400BEEFFA05AE0087
:00000001FF
